{
  "_format": "hh3-artifact-1",
  "contractName": "CampaignFactory",
  "sourceName": "contracts/CampaignFactory.sol",
  "abi": [
    {
      "anonymous": false,
      "inputs": [
        {
          "indexed": true,
          "internalType": "address",
          "name": "owner",
          "type": "address"
        },
        {
          "indexed": true,
          "internalType": "address",
          "name": "campaign",
          "type": "address"
        },
        {
          "indexed": false,
          "internalType": "uint256",
          "name": "goalAmount",
          "type": "uint256"
        },
        {
          "indexed": false,
          "internalType": "uint256",
          "name": "deadline",
          "type": "uint256"
        },
        {
          "indexed": false,
          "internalType": "string",
          "name": "metadataURI",
          "type": "string"
        }
      ],
      "name": "CampaignCreated",
      "type": "event"
    },
    {
      "inputs": [
        {
          "internalType": "uint256",
          "name": "",
          "type": "uint256"
        }
      ],
      "name": "campaigns",
      "outputs": [
        {
          "internalType": "address",
          "name": "",
          "type": "address"
        }
      ],
      "stateMutability": "view",
      "type": "function"
    },
    {
      "inputs": [
        {
          "internalType": "uint256",
          "name": "goalAmount",
          "type": "uint256"
        },
        {
          "internalType": "uint256",
          "name": "deadline",
          "type": "uint256"
        },
        {
          "internalType": "string",
          "name": "metadataURI",
          "type": "string"
        }
      ],
      "name": "createCampaign",
      "outputs": [
        {
          "internalType": "address",
          "name": "",
          "type": "address"
        }
      ],
      "stateMutability": "nonpayable",
      "type": "function"
    },
    {
      "inputs": [],
      "name": "getCampaigns",
      "outputs": [
        {
          "internalType": "address[]",
          "name": "",
          "type": "address[]"
        }
      ],
      "stateMutability": "view",
      "type": "function"
    }
  ],
  "bytecode": "0x6080604052348015600e575f5ffd5b506112538061001c5f395ff3fe608060405234801561000f575f5ffd5b506004361061003f575f3560e01c8063141961bc1461004357806391cbf44e14610073578063a6b0363314610086575b5f5ffd5b610056610051366004610200565b61009b565b6040516001600160a01b0390911681526020015b60405180910390f35b610056610081366004610217565b6100c2565b61008e610194565b60405161006a9190610293565b5f81815481106100a9575f80fd5b5f918252602090912001546001600160a01b0316905081565b5f5f33868686866040516100d5906101f3565b6100e3959493929190610306565b604051809103905ff0801580156100fc573d5f5f3e3d5ffd5b505f80546001810182559080527f290decd9548b62a8d60345a988386fc84ba6bc95484008f6362f93160ef3e5630180546001600160a01b0319166001600160a01b0383169081179091556040519192509033907fbe12cd61db77adb20e095dd401ab22a9dbfa8f24609e60d43a7b365bc88eb61090610183908a908a908a908a9061033e565b60405180910390a395945050505050565b60605f8054806020026020016040519081016040528092919081815260200182805480156101e957602002820191905f5260205f20905b81546001600160a01b031681526001909101906020018083116101cb575b5050505050905090565b610eb68061036883390190565b5f60208284031215610210575f5ffd5b5035919050565b5f5f5f5f6060858703121561022a575f5ffd5b8435935060208501359250604085013567ffffffffffffffff81111561024e575f5ffd5b8501601f8101871361025e575f5ffd5b803567ffffffffffffffff811115610274575f5ffd5b876020828401011115610285575f5ffd5b949793965060200194505050565b602080825282518282018190525f918401906040840190835b818110156102d35783516001600160a01b03168352602093840193909201916001016102ac565b509095945050505050565b81835281816020850137505f828201602090810191909152601f909101601f19169091010190565b60018060a01b0386168152846020820152836040820152608060608201525f6103336080830184866102de565b979650505050505050565b848152836020820152606060408201525f61035d6060830184866102de565b969550505050505056fe608060405234801561000f575f5ffd5b50604051610eb6380380610eb683398101604081905261002e9161017a565b8360017f9b779b17422d0df92223018b32b4d1fa46e071723d6817e2486d003becc55f00556001600160a01b03811661008057604051631e4fbdf760e01b81525f600482015260240160405180910390fd5b61008981610117565b504282116100aa57604051631da7447960e21b815260040160405180910390fd5b5f83116100ca57604051631f5aab1b60e21b815260040160405180910390fd5b80515f036100eb57604051635d6f0a6d60e11b815260040160405180910390fd5b60018390556003829055600561010182826102e0565b50506004805461ffff191690555061039a915050565b5f80546001600160a01b038381166001600160a01b0319831681178455604051919092169283917f8be0079c531659141344cd1fd0a4f28419497f9722a3daafe3b4186f6b6457e09190a35050565b634e487b7160e01b5f52604160045260245ffd5b5f5f5f5f6080858703121561018d575f5ffd5b84516001600160a01b03811681146101a3575f5ffd5b60208601516040870151606088015192965090945092506001600160401b038111156101cd575f5ffd5b8501601f810187136101dd575f5ffd5b80516001600160401b038111156101f6576101f6610166565b604051601f8201601f19908116603f011681016001600160401b038111828210171561022457610224610166565b60405281815282820160200189101561023b575f5ffd5b8160208401602083015e5f6020838301015280935050505092959194509250565b600181811c9082168061027057607f821691505b60208210810361028e57634e487b7160e01b5f52602260045260245ffd5b50919050565b601f8211156102db57805f5260205f20601f840160051c810160208510156102b95750805b601f840160051c820191505b818110156102d8575f81556001016102c5565b50505b505050565b81516001600160401b038111156102f9576102f9610166565b61030d81610307845461025c565b84610294565b6020601f82116001811461033f575f83156103285750848201515b5f19600385901b1c1916600184901b1784556102d8565b5f84815260208120601f198516915b8281101561036e578785015182556020948501946001909201910161034e565b508482101561038b57868401515f19600387901b60f8161c191681555b50505050600190811b01905550565b610b0f806103a75f395ff3fe6080604052600436106100e4575f3560e01c8063715018a611610087578063ac307fcf11610057578063ac307fcf14610227578063b60d428814610255578063c5c4744c1461025d578063f2fde38b14610272575f5ffd5b8063715018a6146101c557806388e3bbda146101d95780638da5cb5b146101ed578063980e784414610213575f5ffd5b806329dcb0cf116100c257806329dcb0cf1461015b5780633ccfd60b1461017057806342e94c9014610186578063590e1ae3146101b1575f5ffd5b806303ee438c146100e8578063200d2ed2146101125780632636b94514610138575b5f5ffd5b3480156100f3575f5ffd5b506100fc610291565b60405161010991906109e0565b60405180910390f35b34801561011d575f5ffd5b5060045461012b9060ff1681565b6040516101099190610a29565b348015610143575f5ffd5b5061014d60015481565b604051908152602001610109565b348015610166575f5ffd5b5061014d60035481565b34801561017b575f5ffd5b5061018461031d565b005b348015610191575f5ffd5b5061014d6101a0366004610a4f565b60066020525f908152604090205481565b3480156101bc575f5ffd5b5061018461049b565b3480156101d0575f5ffd5b50610184610682565b3480156101e4575f5ffd5b50610184610693565b3480156101f8575f5ffd5b505f546040516001600160a01b039091168152602001610109565b34801561021e575f5ffd5b50610184610777565b348015610232575f5ffd5b5060045461024590610100900460ff1681565b6040519015158152602001610109565b6101846107c9565b348015610268575f5ffd5b5061014d60025481565b34801561027d575f5ffd5b5061018461028c366004610a4f565b6108b3565b6005805461029e90610a7c565b80601f01602080910402602001604051908101604052809291908181526020018280546102ca90610a7c565b80156103155780601f106102ec57610100808354040283529160200191610315565b820191905f5260205f20905b8154815290600101906020018083116102f857829003601f168201915b505050505081565b6103256108f5565b61032d610921565b47600160045460ff16600381111561034757610347610a15565b1461036557604051630f7fe27160e01b815260040160405180910390fd5b600454610100900460ff16151560010361039257604051633f72752760e21b815260040160405180910390fd5b6004805461ff0019166101001790555f6103b35f546001600160a01b031690565b6001600160a01b0316826040515f6040518083038185875af1925050503d805f81146103fa576040519150601f19603f3d011682016040523d82523d5f602084013e6103ff565b606091505b5050905080610421576040516312171d8360e31b815260040160405180910390fd5b5f546001600160a01b03166001600160a01b03167f7084f5476618d8e60b11ef0d7d3f06914655adb8793e28ff7f018d4c76d505d58360405161046691815260200190565b60405180910390a2505061049960017f9b779b17422d0df92223018b32b4d1fa46e071723d6817e2486d003becc55f0055565b565b6104a3610921565b335f90815260066020526040812054908190036104d35760405163634b67f560e11b815260040160405180910390fd5b600160045460ff1660038111156104ec576104ec610a15565b0361050a57604051630b4d698160e01b815260040160405180910390fd5b5f60045460ff16600381111561052257610522610a15565b14801561053d575060035461053a9062093a80610ab4565b42105b1561055b57604051630b4d698160e01b815260040160405180910390fd5b5f60045460ff16600381111561057357610573610a15565b14801561058f575060035461058b9062093a80610ab4565b4210155b156105db576004805460ff191660039081179091556040517f790a8bd9850b523ff81af16ab442a865ad6142c7db434ee2f21b13aa014d4467916105d291610a29565b60405180910390a15b335f818152600660205260408082208290555190919083908381818185875af1925050503d805f8114610629576040519150601f19603f3d011682016040523d82523d5f602084013e61062e565b606091505b5050905080610650576040516312171d8360e31b815260040160405180910390fd5b60405182815233907fd7dee2702d63ad89917b6a4da9981c90c4d24f8c2bdfd64c604ecae57d8d065190602001610466565b61068a6108f5565b6104995f61094f565b61069b6108f5565b5f60045460ff1660038111156106b3576106b3610a15565b146106d15760405163219a945b60e11b815260040160405180910390fd5b6001546002541080156106e5575060035442105b1561070357604051634e5b565b60e11b815260040160405180910390fd5b60015460025410610720576004805460ff19166001179055610736565b600480546002919060ff19166001835b02179055505b6004546040517f790a8bd9850b523ff81af16ab442a865ad6142c7db434ee2f21b13aa014d44679161076d9160ff90911690610a29565b60405180910390a1565b61077f6108f5565b5f60045460ff16600381111561079757610797610a15565b146107b55760405163219a945b60e11b815260040160405180910390fd5b600480546003919060ff1916600183610730565b5f60045460ff1660038111156107e1576107e1610a15565b146107ff5760405163219a945b60e11b815260040160405180910390fd5b426003541161082157604051638320b48360e01b815260040160405180910390fd5b345f0361084157604051631570544960e31b815260040160405180910390fd5b335f908152600660205260408120805434929061085f908490610ab4565b925050819055503460025f8282546108779190610ab4565b909155505060405134815233907f5af8184bef8e4b45eb9f6ed7734d04da38ced226495548f46e0c8ff8d7d9a5249060200160405180910390a2565b6108bb6108f5565b6001600160a01b0381166108e957604051631e4fbdf760e01b81525f60048201526024015b60405180910390fd5b6108f28161094f565b50565b5f546001600160a01b031633146104995760405163118cdaa760e01b81523360048201526024016108e0565b61092961099e565b60027f9b779b17422d0df92223018b32b4d1fa46e071723d6817e2486d003becc55f0055565b5f80546001600160a01b038381166001600160a01b0319831681178455604051919092169283917f8be0079c531659141344cd1fd0a4f28419497f9722a3daafe3b4186f6b6457e09190a35050565b7f9b779b17422d0df92223018b32b4d1fa46e071723d6817e2486d003becc55f005460020361049957604051633ee5aeb560e01b815260040160405180910390fd5b602081525f82518060208401528060208501604085015e5f604082850101526040601f19601f83011684010191505092915050565b634e487b7160e01b5f52602160045260245ffd5b6020810160048310610a4957634e487b7160e01b5f52602160045260245ffd5b91905290565b5f60208284031215610a5f575f5ffd5b81356001600160a01b0381168114610a75575f5ffd5b9392505050565b600181811c90821680610a9057607f821691505b602082108103610aae57634e487b7160e01b5f52602260045260245ffd5b50919050565b80820180821115610ad357634e487b7160e01b5f52601160045260245ffd5b9291505056fea264697066735822122089731b99cc4d8b5d42a2d81d17f90b30536a2196273b70b63b6bbde046b0b4d564736f6c634300081c0033a264697066735822122066775af37cfdaf55a77b0bf682ffa6eabdcd77c1a7697661b9751b6bb64180bc64736f6c634300081c0033",
  "linkReferences": {},
  "deployedLinkReferences": {},
  "immutableReferences": {},
  "inputSourceName": "project/contracts/CampaignFactory.sol",
  "buildInfoId": "solc-0_8_28-7caed59c63725bdd3e9f1047dac9a791dabbaa6c"
}